{
  "contractName": "ERC20Token",
  "abi": [
    {
      "inputs": [
        {
          "internalType": "string",
          "name": "name",
          "type": "string"
        },
        {
          "internalType": "string",
          "name": "symbol",
          "type": "string"
        }
      ],
      "stateMutability": "nonpayable",
      "type": "constructor"
    },
    {
      "inputs": [
        {
          "internalType": "address",
          "name": "spender",
          "type": "address"
        },
        {
          "internalType": "uint256",
          "name": "allowance",
          "type": "uint256"
        },
        {
          "internalType": "uint256",
          "name": "needed",
          "type": "uint256"
        }
      ],
      "name": "ERC20InsufficientAllowance",
      "type": "error"
    },
    {
      "inputs": [
        {
          "internalType": "address",
          "name": "sender",
          "type": "address"
        },
        {
          "internalType": "uint256",
          "name": "balance",
          "type": "uint256"
        },
        {
          "internalType": "uint256",
          "name": "needed",
          "type": "uint256"
        }
      ],
      "name": "ERC20InsufficientBalance",
      "type": "error"
    },
    {
      "inputs": [
        {
          "internalType": "address",
          "name": "approver",
          "type": "address"
        }
      ],
      "name": "ERC20InvalidApprover",
      "type": "error"
    },
    {
      "inputs": [
        {
          "internalType": "address",
          "name": "receiver",
          "type": "address"
        }
      ],
      "name": "ERC20InvalidReceiver",
      "type": "error"
    },
    {
      "inputs": [
        {
          "internalType": "address",
          "name": "sender",
          "type": "address"
        }
      ],
      "name": "ERC20InvalidSender",
      "type": "error"
    },
    {
      "inputs": [
        {
          "internalType": "address",
          "name": "spender",
          "type": "address"
        }
      ],
      "name": "ERC20InvalidSpender",
      "type": "error"
    },
    {
      "inputs": [
        {
          "internalType": "address",
          "name": "owner",
          "type": "address"
        }
      ],
      "name": "OwnableInvalidOwner",
      "type": "error"
    },
    {
      "inputs": [
        {
          "internalType": "address",
          "name": "account",
          "type": "address"
        }
      ],
      "name": "OwnableUnauthorizedAccount",
      "type": "error"
    },
    {
      "anonymous": false,
      "inputs": [
        {
          "indexed": true,
          "internalType": "address",
          "name": "owner",
          "type": "address"
        },
        {
          "indexed": true,
          "internalType": "address",
          "name": "spender",
          "type": "address"
        },
        {
          "indexed": false,
          "internalType": "uint256",
          "name": "value",
          "type": "uint256"
        }
      ],
      "name": "Approval",
      "type": "event"
    },
    {
      "anonymous": false,
      "inputs": [
        {
          "indexed": true,
          "internalType": "address",
          "name": "previousOwner",
          "type": "address"
        },
        {
          "indexed": true,
          "internalType": "address",
          "name": "newOwner",
          "type": "address"
        }
      ],
      "name": "OwnershipTransferred",
      "type": "event"
    },
    {
      "anonymous": false,
      "inputs": [
        {
          "indexed": true,
          "internalType": "address",
          "name": "from",
          "type": "address"
        },
        {
          "indexed": true,
          "internalType": "address",
          "name": "to",
          "type": "address"
        },
        {
          "indexed": false,
          "internalType": "uint256",
          "name": "value",
          "type": "uint256"
        }
      ],
      "name": "Transfer",
      "type": "event"
    },
    {
      "inputs": [
        {
          "internalType": "address",
          "name": "owner",
          "type": "address"
        },
        {
          "internalType": "address",
          "name": "spender",
          "type": "address"
        }
      ],
      "name": "allowance",
      "outputs": [
        {
          "internalType": "uint256",
          "name": "",
          "type": "uint256"
        }
      ],
      "stateMutability": "view",
      "type": "function"
    },
    {
      "inputs": [
        {
          "internalType": "address",
          "name": "spender",
          "type": "address"
        },
        {
          "internalType": "uint256",
          "name": "value",
          "type": "uint256"
        }
      ],
      "name": "approve",
      "outputs": [
        {
          "internalType": "bool",
          "name": "",
          "type": "bool"
        }
      ],
      "stateMutability": "nonpayable",
      "type": "function"
    },
    {
      "inputs": [
        {
          "internalType": "address",
          "name": "account",
          "type": "address"
        }
      ],
      "name": "balanceOf",
      "outputs": [
        {
          "internalType": "uint256",
          "name": "",
          "type": "uint256"
        }
      ],
      "stateMutability": "view",
      "type": "function"
    },
    {
      "inputs": [],
      "name": "decimals",
      "outputs": [
        {
          "internalType": "uint8",
          "name": "",
          "type": "uint8"
        }
      ],
      "stateMutability": "view",
      "type": "function"
    },
    {
      "inputs": [],
      "name": "name",
      "outputs": [
        {
          "internalType": "string",
          "name": "",
          "type": "string"
        }
      ],
      "stateMutability": "view",
      "type": "function"
    },
    {
      "inputs": [],
      "name": "owner",
      "outputs": [
        {
          "internalType": "address",
          "name": "",
          "type": "address"
        }
      ],
      "stateMutability": "view",
      "type": "function"
    },
    {
      "inputs": [],
      "name": "renounceOwnership",
      "outputs": [],
      "stateMutability": "nonpayable",
      "type": "function"
    },
    {
      "inputs": [],
      "name": "symbol",
      "outputs": [
        {
          "internalType": "string",
          "name": "",
          "type": "string"
        }
      ],
      "stateMutability": "view",
      "type": "function"
    },
    {
      "inputs": [],
      "name": "totalSupply",
      "outputs": [
        {
          "internalType": "uint256",
          "name": "",
          "type": "uint256"
        }
      ],
      "stateMutability": "view",
      "type": "function"
    },
    {
      "inputs": [
        {
          "internalType": "address",
          "name": "to",
          "type": "address"
        },
        {
          "internalType": "uint256",
          "name": "value",
          "type": "uint256"
        }
      ],
      "name": "transfer",
      "outputs": [
        {
          "internalType": "bool",
          "name": "",
          "type": "bool"
        }
      ],
      "stateMutability": "nonpayable",
      "type": "function"
    },
    {
      "inputs": [
        {
          "internalType": "address",
          "name": "from",
          "type": "address"
        },
        {
          "internalType": "address",
          "name": "to",
          "type": "address"
        },
        {
          "internalType": "uint256",
          "name": "value",
          "type": "uint256"
        }
      ],
      "name": "transferFrom",
      "outputs": [
        {
          "internalType": "bool",
          "name": "",
          "type": "bool"
        }
      ],
      "stateMutability": "nonpayable",
      "type": "function"
    },
    {
      "inputs": [
        {
          "internalType": "address",
          "name": "newOwner",
          "type": "address"
        }
      ],
      "name": "transferOwnership",
      "outputs": [],
      "stateMutability": "nonpayable",
      "type": "function"
    }
  ],
  "bytecode": "0x608060405234801562000010575f80fd5b50604051620017a8380380620017a8833981810160405281019062000036919062000334565b33828281600390816200004a9190620005ee565b5080600490816200005c9190620005ee565b5050505f73ffffffffffffffffffffffffffffffffffffffff168173ffffffffffffffffffffffffffffffffffffffff1603620000d2575f6040517f1e4fbdf7000000000000000000000000000000000000000000000000000000008152600401620000c9919062000715565b60405180910390fd5b620000e381620000ec60201b60201c565b50505062000730565b5f60055f9054906101000a900473ffffffffffffffffffffffffffffffffffffffff1690508160055f6101000a81548173ffffffffffffffffffffffffffffffffffffffff021916908373ffffffffffffffffffffffffffffffffffffffff1602179055508173ffffffffffffffffffffffffffffffffffffffff168173ffffffffffffffffffffffffffffffffffffffff167f8be0079c531659141344cd1fd0a4f28419497f9722a3daafe3b4186f6b6457e060405160405180910390a35050565b5f604051905090565b5f80fd5b5f80fd5b5f80fd5b5f80fd5b5f601f19601f8301169050919050565b7f4e487b71000000000000000000000000000000000000000000000000000000005f52604160045260245ffd5b6200021082620001c8565b810181811067ffffffffffffffff82111715620002325762000231620001d8565b5b80604052505050565b5f62000246620001af565b905062000254828262000205565b919050565b5f67ffffffffffffffff821115620002765762000275620001d8565b5b6200028182620001c8565b9050602081019050919050565b5f5b83811015620002ad57808201518184015260208101905062000290565b5f8484015250505050565b5f620002ce620002c88462000259565b6200023b565b905082815260208101848484011115620002ed57620002ec620001c4565b5b620002fa8482856200028e565b509392505050565b5f82601f830112620003195762000318620001c0565b5b81516200032b848260208601620002b8565b91505092915050565b5f80604083850312156200034d576200034c620001b8565b5b5f83015167ffffffffffffffff8111156200036d576200036c620001bc565b5b6200037b8582860162000302565b925050602083015167ffffffffffffffff8111156200039f576200039e620001bc565b5b620003ad8582860162000302565b9150509250929050565b5f81519050919050565b7f4e487b71000000000000000000000000000000000000000000000000000000005f52602260045260245ffd5b5f60028204905060018216806200040657607f821691505b6020821081036200041c576200041b620003c1565b5b50919050565b5f819050815f5260205f209050919050565b5f6020601f8301049050919050565b5f82821b905092915050565b5f60088302620004807fffffffffffffffffffffffffffffffffffffffffffffffffffffffffffffffff8262000443565b6200048c868362000443565b95508019841693508086168417925050509392505050565b5f819050919050565b5f819050919050565b5f620004d6620004d0620004ca84620004a4565b620004ad565b620004a4565b9050919050565b5f819050919050565b620004f183620004b6565b620005096200050082620004dd565b8484546200044f565b825550505050565b5f90565b6200051f62000511565b6200052c818484620004e6565b505050565b5b818110156200055357620005475f8262000515565b60018101905062000532565b5050565b601f821115620005a2576200056c8162000422565b620005778462000434565b8101602085101562000587578190505b6200059f620005968562000434565b83018262000531565b50505b505050565b5f82821c905092915050565b5f620005c45f1984600802620005a7565b1980831691505092915050565b5f620005de8383620005b3565b9150826002028217905092915050565b620005f982620003b7565b67ffffffffffffffff811115620006155762000614620001d8565b5b620006218254620003ee565b6200062e82828562000557565b5f60209050601f83116001811462000664575f84156200064f578287015190505b6200065b8582620005d1565b865550620006ca565b601f198416620006748662000422565b5f5b828110156200069d5784890151825560018201915060208501945060208101905062000676565b86831015620006bd5784890151620006b9601f891682620005b3565b8355505b6001600288020188555050505b505050505050565b5f73ffffffffffffffffffffffffffffffffffffffff82169050919050565b5f620006fd82620006d2565b9050919050565b6200070f81620006f1565b82525050565b5f6020820190506200072a5f83018462000704565b92915050565b61106a806200073e5f395ff3fe608060405234801561000f575f80fd5b50600436106100b2575f3560e01c8063715018a61161006f578063715018a6146101a05780638da5cb5b146101aa57806395d89b41146101c8578063a9059cbb146101e6578063dd62ed3e14610216578063f2fde38b14610246576100b2565b806306fdde03146100b6578063095ea7b3146100d457806318160ddd1461010457806323b872dd14610122578063313ce5671461015257806370a0823114610170575b5f80fd5b6100be610262565b6040516100cb9190610ce3565b60405180910390f35b6100ee60048036038101906100e99190610d94565b6102f2565b6040516100fb9190610dec565b60405180910390f35b61010c610314565b6040516101199190610e14565b60405180910390f35b61013c60048036038101906101379190610e2d565b61031d565b6040516101499190610dec565b60405180910390f35b61015a61034b565b6040516101679190610e98565b60405180910390f35b61018a60048036038101906101859190610eb1565b610353565b6040516101979190610e14565b60405180910390f35b6101a8610398565b005b6101b26103ab565b6040516101bf9190610eeb565b60405180910390f35b6101d06103d3565b6040516101dd9190610ce3565b60405180910390f35b61020060048036038101906101fb9190610d94565b610463565b60405161020d9190610dec565b60405180910390f35b610230600480360381019061022b9190610f04565b610485565b60405161023d9190610e14565b60405180910390f35b610260600480360381019061025b9190610eb1565b610507565b005b60606003805461027190610f6f565b80601f016020809104026020016040519081016040528092919081815260200182805461029d90610f6f565b80156102e85780601f106102bf576101008083540402835291602001916102e8565b820191905f5260205f20905b8154815290600101906020018083116102cb57829003601f168201915b5050505050905090565b5f806102fc61058b565b9050610309818585610592565b600191505092915050565b5f600254905090565b5f8061032761058b565b90506103348582856105a4565b61033f858585610637565b60019150509392505050565b5f6012905090565b5f805f8373ffffffffffffffffffffffffffffffffffffffff1673ffffffffffffffffffffffffffffffffffffffff1681526020019081526020015f20549050919050565b6103a0610727565b6103a95f6107ae565b565b5f60055f9054906101000a900473ffffffffffffffffffffffffffffffffffffffff16905090565b6060600480546103e290610f6f565b80601f016020809104026020016040519081016040528092919081815260200182805461040e90610f6f565b80156104595780601f1061043057610100808354040283529160200191610459565b820191905f5260205f20905b81548152906001019060200180831161043c57829003601f168201915b5050505050905090565b5f8061046d61058b565b905061047a818585610637565b600191505092915050565b5f60015f8473ffffffffffffffffffffffffffffffffffffffff1673ffffffffffffffffffffffffffffffffffffffff1681526020019081526020015f205f8373ffffffffffffffffffffffffffffffffffffffff1673ffffffffffffffffffffffffffffffffffffffff1681526020019081526020015f2054905092915050565b61050f610727565b5f73ffffffffffffffffffffffffffffffffffffffff168173ffffffffffffffffffffffffffffffffffffffff160361057f575f6040517f1e4fbdf70000000000000000000000000000000000000000000000000000000081526004016105769190610eeb565b60405180910390fd5b610588816107ae565b50565b5f33905090565b61059f8383836001610871565b505050565b5f6105af8484610485565b90507fffffffffffffffffffffffffffffffffffffffffffffffffffffffffffffffff8110156106315781811015610622578281836040517ffb8f41b200000000000000000000000000000000000000000000000000000000815260040161061993929190610f9f565b60405180910390fd5b61063084848484035f610871565b5b50505050565b5f73ffffffffffffffffffffffffffffffffffffffff168373ffffffffffffffffffffffffffffffffffffffff16036106a7575f6040517f96c6fd1e00000000000000000000000000000000000000000000000000000000815260040161069e9190610eeb565b60405180910390fd5b5f73ffffffffffffffffffffffffffffffffffffffff168273ffffffffffffffffffffffffffffffffffffffff1603610717575f6040517fec442f0500000000000000000000000000000000000000000000000000000000815260040161070e9190610eeb565b60405180910390fd5b610722838383610a40565b505050565b61072f61058b565b73ffffffffffffffffffffffffffffffffffffffff1661074d6103ab565b73ffffffffffffffffffffffffffffffffffffffff16146107ac5761077061058b565b6040517f118cdaa70000000000000000000000000000000000000000000000000000000081526004016107a39190610eeb565b60405180910390fd5b565b5f60055f9054906101000a900473ffffffffffffffffffffffffffffffffffffffff1690508160055f6101000a81548173ffffffffffffffffffffffffffffffffffffffff021916908373ffffffffffffffffffffffffffffffffffffffff1602179055508173ffffffffffffffffffffffffffffffffffffffff168173ffffffffffffffffffffffffffffffffffffffff167f8be0079c531659141344cd1fd0a4f28419497f9722a3daafe3b4186f6b6457e060405160405180910390a35050565b5f73ffffffffffffffffffffffffffffffffffffffff168473ffffffffffffffffffffffffffffffffffffffff16036108e1575f6040517fe602df050000000000000000000000000000000000000000000000000000000081526004016108d89190610eeb565b60405180910390fd5b5f73ffffffffffffffffffffffffffffffffffffffff168373ffffffffffffffffffffffffffffffffffffffff1603610951575f6040517f94280d620000000000000000000000000000000000000000000000000000000081526004016109489190610eeb565b60405180910390fd5b8160015f8673ffffffffffffffffffffffffffffffffffffffff1673ffffffffffffffffffffffffffffffffffffffff1681526020019081526020015f205f8573ffffffffffffffffffffffffffffffffffffffff1673ffffffffffffffffffffffffffffffffffffffff1681526020019081526020015f20819055508015610a3a578273ffffffffffffffffffffffffffffffffffffffff168473ffffffffffffffffffffffffffffffffffffffff167f8c5be1e5ebec7d5bd14f71427d1e84f3dd0314c0f7b2291e5b200ac8c7c3b92584604051610a319190610e14565b60405180910390a35b50505050565b5f73ffffffffffffffffffffffffffffffffffffffff168373ffffffffffffffffffffffffffffffffffffffff1603610a90578060025f828254610a849190611001565b92505081905550610b5e565b5f805f8573ffffffffffffffffffffffffffffffffffffffff1673ffffffffffffffffffffffffffffffffffffffff1681526020019081526020015f2054905081811015610b19578381836040517fe450d38c000000000000000000000000000000000000000000000000000000008152600401610b1093929190610f9f565b60405180910390fd5b8181035f808673ffffffffffffffffffffffffffffffffffffffff1673ffffffffffffffffffffffffffffffffffffffff1681526020019081526020015f2081905550505b5f73ffffffffffffffffffffffffffffffffffffffff168273ffffffffffffffffffffffffffffffffffffffff1603610ba5578060025f8282540392505081905550610bef565b805f808473ffffffffffffffffffffffffffffffffffffffff1673ffffffffffffffffffffffffffffffffffffffff1681526020019081526020015f205f82825401925050819055505b8173ffffffffffffffffffffffffffffffffffffffff168373ffffffffffffffffffffffffffffffffffffffff167fddf252ad1be2c89b69c2b068fc378daa952ba7f163c4a11628f55a4df523b3ef83604051610c4c9190610e14565b60405180910390a3505050565b5f81519050919050565b5f82825260208201905092915050565b5f5b83811015610c90578082015181840152602081019050610c75565b5f8484015250505050565b5f601f19601f8301169050919050565b5f610cb582610c59565b610cbf8185610c63565b9350610ccf818560208601610c73565b610cd881610c9b565b840191505092915050565b5f6020820190508181035f830152610cfb8184610cab565b905092915050565b5f80fd5b5f73ffffffffffffffffffffffffffffffffffffffff82169050919050565b5f610d3082610d07565b9050919050565b610d4081610d26565b8114610d4a575f80fd5b50565b5f81359050610d5b81610d37565b92915050565b5f819050919050565b610d7381610d61565b8114610d7d575f80fd5b50565b5f81359050610d8e81610d6a565b92915050565b5f8060408385031215610daa57610da9610d03565b5b5f610db785828601610d4d565b9250506020610dc885828601610d80565b9150509250929050565b5f8115159050919050565b610de681610dd2565b82525050565b5f602082019050610dff5f830184610ddd565b92915050565b610e0e81610d61565b82525050565b5f602082019050610e275f830184610e05565b92915050565b5f805f60608486031215610e4457610e43610d03565b5b5f610e5186828701610d4d565b9350506020610e6286828701610d4d565b9250506040610e7386828701610d80565b9150509250925092565b5f60ff82169050919050565b610e9281610e7d565b82525050565b5f602082019050610eab5f830184610e89565b92915050565b5f60208284031215610ec657610ec5610d03565b5b5f610ed384828501610d4d565b91505092915050565b610ee581610d26565b82525050565b5f602082019050610efe5f830184610edc565b92915050565b5f8060408385031215610f1a57610f19610d03565b5b5f610f2785828601610d4d565b9250506020610f3885828601610d4d565b9150509250929050565b7f4e487b71000000000000000000000000000000000000000000000000000000005f52602260045260245ffd5b5f6002820490506001821680610f8657607f821691505b602082108103610f9957610f98610f42565b5b50919050565b5f606082019050610fb25f830186610edc565b610fbf6020830185610e05565b610fcc6040830184610e05565b949350505050565b7f4e487b71000000000000000000000000000000000000000000000000000000005f52601160045260245ffd5b5f61100b82610d61565b915061101683610d61565b925082820190508082111561102e5761102d610fd4565b5b9291505056fea264697066735822122096725220421bd691b452ab9e082393f034cb58d30deedd5838890c22aecb729b64736f6c63430008140033",
  "immutableReferences": {},
  "source": "// SPDX-License-Identifier: MIT\npragma solidity ^0.8.20;\n\nimport \"@openzeppelin/contracts/token/ERC20/ERC20.sol\";\nimport \"@openzeppelin/contracts/access/Ownable.sol\";\n\ncontract ERC20Token is ERC20, Ownable {\n    constructor(string memory name, string memory symbol) \n        ERC20(name, symbol) \n        Ownable(msg.sender) //  Pass deployer as initialOwner\n    {}\n}\n",
  "sourcePath": "C:\\Users\\WD\\coin\\erc20-token-project\\contracts\\ERC20Token.sol",
  "compiler": {
    "name": "solc",
    "version": "0.8.20+commit.a1b79de6.Emscripten.clang"
  },
  "schemaVersion": "3.4.16",
  "updatedAt": "2025-04-18T14:10:03.546Z",
  "devdoc": {
    "errors": {
      "ERC20InsufficientAllowance(address,uint256,uint256)": [
        {
          "details": "Indicates a failure with the `spender`s `allowance`. Used in transfers.",
          "params": {
            "allowance": "Amount of tokens a `spender` is allowed to operate with.",
            "needed": "Minimum amount required to perform a transfer.",
            "spender": "Address that may be allowed to operate on tokens without being their owner."
          }
        }
      ],
      "ERC20InsufficientBalance(address,uint256,uint256)": [
        {
          "details": "Indicates an error related to the current `balance` of a `sender`. Used in transfers.",
          "params": {
            "balance": "Current balance for the interacting account.",
            "needed": "Minimum amount required to perform a transfer.",
            "sender": "Address whose tokens are being transferred."
          }
        }
      ],
      "ERC20InvalidApprover(address)": [
        {
          "details": "Indicates a failure with the `approver` of a token to be approved. Used in approvals.",
          "params": {
            "approver": "Address initiating an approval operation."
          }
        }
      ],
      "ERC20InvalidReceiver(address)": [
        {
          "details": "Indicates a failure with the token `receiver`. Used in transfers.",
          "params": {
            "receiver": "Address to which tokens are being transferred."
          }
        }
      ],
      "ERC20InvalidSender(address)": [
        {
          "details": "Indicates a failure with the token `sender`. Used in transfers.",
          "params": {
            "sender": "Address whose tokens are being transferred."
          }
        }
      ],
      "ERC20InvalidSpender(address)": [
        {
          "details": "Indicates a failure with the `spender` to be approved. Used in approvals.",
          "params": {
            "spender": "Address that may be allowed to operate on tokens without being their owner."
          }
        }
      ],
      "OwnableInvalidOwner(address)": [
        {
          "details": "The owner is not a valid owner account. (eg. `address(0)`)"
        }
      ],
      "OwnableUnauthorizedAccount(address)": [
        {
          "details": "The caller account is not authorized to perform an operation."
        }
      ]
    },
    "events": {
      "Approval(address,address,uint256)": {
        "details": "Emitted when the allowance of a `spender` for an `owner` is set by a call to {approve}. `value` is the new allowance."
      },
      "Transfer(address,address,uint256)": {
        "details": "Emitted when `value` tokens are moved from one account (`from`) to another (`to`). Note that `value` may be zero."
      }
    },
    "kind": "dev",
    "methods": {
      "allowance(address,address)": {
        "details": "See {IERC20-allowance}."
      },
      "approve(address,uint256)": {
        "details": "See {IERC20-approve}. NOTE: If `value` is the maximum `uint256`, the allowance is not updated on `transferFrom`. This is semantically equivalent to an infinite approval. Requirements: - `spender` cannot be the zero address."
      },
      "balanceOf(address)": {
        "details": "See {IERC20-balanceOf}."
      },
      "decimals()": {
        "details": "Returns the number of decimals used to get its user representation. For example, if `decimals` equals `2`, a balance of `505` tokens should be displayed to a user as `5.05` (`505 / 10 ** 2`). Tokens usually opt for a value of 18, imitating the relationship between Ether and Wei. This is the default value returned by this function, unless it's overridden. NOTE: This information is only used for _display_ purposes: it in no way affects any of the arithmetic of the contract, including {IERC20-balanceOf} and {IERC20-transfer}."
      },
      "name()": {
        "details": "Returns the name of the token."
      },
      "owner()": {
        "details": "Returns the address of the current owner."
      },
      "renounceOwnership()": {
        "details": "Leaves the contract without owner. It will not be possible to call `onlyOwner` functions. Can only be called by the current owner. NOTE: Renouncing ownership will leave the contract without an owner, thereby disabling any functionality that is only available to the owner."
      },
      "symbol()": {
        "details": "Returns the symbol of the token, usually a shorter version of the name."
      },
      "totalSupply()": {
        "details": "See {IERC20-totalSupply}."
      },
      "transfer(address,uint256)": {
        "details": "See {IERC20-transfer}. Requirements: - `to` cannot be the zero address. - the caller must have a balance of at least `value`."
      },
      "transferFrom(address,address,uint256)": {
        "details": "See {IERC20-transferFrom}. Skips emitting an {Approval} event indicating an allowance update. This is not required by the ERC. See {xref-ERC20-_approve-address-address-uint256-bool-}[_approve]. NOTE: Does not update the allowance if the current allowance is the maximum `uint256`. Requirements: - `from` and `to` cannot be the zero address. - `from` must have a balance of at least `value`. - the caller must have allowance for ``from``'s tokens of at least `value`."
      },
      "transferOwnership(address)": {
        "details": "Transfers ownership of the contract to a new account (`newOwner`). Can only be called by the current owner."
      }
    },
    "version": 1
  },
  "userdoc": {
    "kind": "user",
    "methods": {},
    "version": 1
  }
}