{
  "contractName": "Migrations",
  "abi": [
    {
      "inputs": [],
      "stateMutability": "nonpayable",
      "type": "constructor"
    },
    {
      "inputs": [],
      "name": "owner",
      "outputs": [
        {
          "internalType": "address",
          "name": "",
          "type": "address"
        }
      ],
      "stateMutability": "view",
      "type": "function"
    },
    {
      "inputs": [
        {
          "internalType": "uint256",
          "name": "completed",
          "type": "uint256"
        }
      ],
      "name": "setCompleted",
      "outputs": [],
      "stateMutability": "nonpayable",
      "type": "function"
    }
  ],
  "bytecode": "0x6080604052335f806101000a81548173ffffffffffffffffffffffffffffffffffffffff021916908373ffffffffffffffffffffffffffffffffffffffff16021790555034801561004e575f80fd5b506101de8061005c5f395ff3fe608060405234801561000f575f80fd5b5060043610610034575f3560e01c80638da5cb5b14610038578063fdacd57614610056575b5f80fd5b610040610072565b60405161004d919061012d565b60405180910390f35b610070600480360381019061006b919061017d565b610095565b005b5f8054906101000a900473ffffffffffffffffffffffffffffffffffffffff1681565b5f8054906101000a900473ffffffffffffffffffffffffffffffffffffffff1673ffffffffffffffffffffffffffffffffffffffff163373ffffffffffffffffffffffffffffffffffffffff16146100eb575f80fd5b50565b5f73ffffffffffffffffffffffffffffffffffffffff82169050919050565b5f610117826100ee565b9050919050565b6101278161010d565b82525050565b5f6020820190506101405f83018461011e565b92915050565b5f80fd5b5f819050919050565b61015c8161014a565b8114610166575f80fd5b50565b5f8135905061017781610153565b92915050565b5f6020828403121561019257610191610146565b5b5f61019f84828501610169565b9150509291505056fea26469706673582212202b18c14f6062bec1399490c5b500b323ce0f2903d545a092f509d1c55d97a9aa64736f6c63430008140033",
  "immutableReferences": {},
  "source": "// Migrations.sol\n// SPDX-License-Identifier: MIT\npragma solidity ^0.8.0;\n\ncontract Migrations {\n    address public owner = msg.sender;\n\n    constructor() {}\n\n    function setCompleted(uint completed) public {\n        require(msg.sender == owner);\n    }\n}\n",
  "sourcePath": "C:\\Users\\WD\\coin\\erc20-token-project\\contracts\\Migrations.sol",
  "compiler": {
    "name": "solc",
    "version": "0.8.20+commit.a1b79de6.Emscripten.clang"
  },
  "schemaVersion": "3.4.16",
  "updatedAt": "2025-04-18T14:10:03.552Z",
  "devdoc": {
    "kind": "dev",
    "methods": {},
    "version": 1
  },
  "userdoc": {
    "kind": "user",
    "methods": {},
    "version": 1
  }
}